:1000000000000320D1010000D9C6000091C6000005
:1000100091C6000091C6000091C6000091C6000084
:1000200091C6000091C6000091C60000D9C600002C
:10003000D9C6000091C6000039E100003DE2000091
:10004000D9C60000D9C60000D9C60000D9C6000034
:10005000D9C60000D9C60000D9C60000D9C6000024
:10006000D9C60000D9C60000D9C60000D9C6000014
:10007000D9C60000D9C60000D9C60000D9C6000004
:10008000D9C60000D9C60000D9C60000D9C60000F4
:10009000D9C60000D9C60000D9C60000D9C60000E4
:1000A0009DBC0000A9BC0000D9C60000D9C6000054
:1000B000D9C60000D9C60000D9C60000C5E70000B7
:1000C000D9C60000F1E80000D9C600001DEA000012
:1000D000D9C6000015EB0000D9C60000D9C6000043
:1000E000D9C60000D9C60000D9C60000D9C6000094
:1000F000D9C60000D9C60000D9C60000D9C6000084
:1001000095E20000A9E20000BDE20000D1E200009B
:10011000D9C60000B1CC0000D9C60000D9C6000085
:10012000D9C60000D9C60000D9C60000D9C6000053
:10013000D9C60000D9C60000D9C60000D9C6000043
:10014000EDDE0000D9C600000DEC0000D9C60000AD
:10015000D9C60000D9C60000D9C60000D9C6000023
:10016000D9C60000D9C60000B5BC0000D9C6000041
:10017000D9C60000D9C60000D9C60000D9C6000003
:10018000D9C60000D9C60000D9C60000D9C60000F3
:10019000D9C60000D9C6000005ED0000D9C6000090
:1001A000D9C60000D9C60000D9C60000D9C60000D3
:1001B000D9C60000D9C60000D9C60000D9C60000C3
:1001C000D9C60000D9C60000D9C60000D9C60000B3
:1001D0005C4B4CF2205210B51A804DF628121A8052
:1001E00000BF00BF0CF07CFA574B4FF030621A6032
:1001F000564A9A60564ADA60564B4FF470021A60BB
:10020000554B564A1A60564B1A78110703D51A787F
:1002100042F008021A70534B5349AA221A70534AEB
:10022000534B8B4204D252F8040F43F8040BF8E707
:10023000504B514900228B4202D243F8042BFAE77B
:100240004E494F4A002352F8230041F8230001335E
:10025000742BF8D14B4B4C4A802103F8011B93427D
:10026000FBD14A4B454A1A60494B8A221A70A3F5C2
:10027000805324225A70A0221A709A799207FCD5D2
:100280009A79D406FCD4434A937903F00C03082BE3
:10029000FAD1414B60221A7002331A78802AFCD1BD
:1002A0003C4B01221A715D225A719A799006FCD555
:1002B0009979384A4906FBD5384B394919600021EC
:1002C000596020231370937903F00C030C2BFAD19F
:1002D000344B354A1A60354A354C136813F4807331
:1002E00003D123604FF4A8531360324B324A1A6093
:1002F00000225A60072243F8042C304AC3F80C2D20
:1003000062B60CF045FB2368DA0705D52C480CF0E3
:100310009DFA2C4B2C4A1A602C4B1B785B0609D596
:10032000284C294B22689A4204D125480CF08EFAB9
:100330000023236010F04EFD0CF0D8F90EF088F980
:10034000FEE700BF0E20054030800440823F0400DD
:100350000100002B88ED00E0002008E0030000858C
:1003600002D0074000E00740E03BFF1F785C01003F
:10037000302FFF1FE03BFF1FACC10220002AFF1FF0
:100380000000000000E400E064E400E008ED00E0AC
:10039000005006400040064001E007404480044011
:1003A0000000060204800440C010070010D0034083
:1003B00014D0034014E000E01FBF02000000202022
:1003C000E21DAC5E1CE00340A5C3945A00F0074058
:1003D000FFFFFFFFFFFFFFFFFFFFFFFFFFFFFFFF2D
:1003E000FFFFFFFFFFFFFFFFFFFFFFFFFFFFFFFF1D
:1003F000FFFFFFFFFFFFFFFFFFFFFFFFFFFFFFFF0D
:10040000FFFFFFFFFFFFFFFFFFFFFFFFDEF9FFFF23
:1004100010B5054C237833B9044B13B10448AFF33E
:1004200000800123237010BDE03BFF1F000000008F
:10043000745C0100084B10B51BB108490848AFF3C4
:1004400000800848036803B910BD074B002BFBD0A0
:10045000BDE81040184700BF00000000E43BFF1F4C
:10046000745C0100E03BFF1F0000000000207047AB
:10047000704700BF10B504460DF0E2FC204610BDE9
:1004800010B504460DF0E4FE204610BD70B50446DC
:1004900008460D4611F0B4FB236802462946204663
:1004A0005B68BDE87040184738B5044608460D46FD
:1004B00011F0A6FB2368024629465B682046984750
:1004C000054620460DF04AFF284438BD38B505469C
:1004D0000DF094FF044628460DF040FF204438BD3F
:1004E000002310B4114C4172026104600372C360B6
:1004F00041B1194600E0026942F82310427A013303
:100500009A42F8DC0A4B1A680AB90CE01A46536999
:10051000002BFBD15061002343618380C380837231
:100520005DF8044B70471860F5E700BF9C4F010071
:10053000B0BD02202DE9F041184C84B0236802932D
:10054000029E23680393039B9B1B834222D2054692
:1005500002200DF093FF074602200DF08FFF80462A
:1005600003200DF08BFF02300021C0B25FFA88F348
:10057000FAB2009101900A480BF006FD08480BF012
:1005800005FC14200CF0B2F923680393039B9B1B1A
:10059000AB42DDD304B0BDE8F08100BFB0BC0220A7
:1005A000305CFF1F38B5800004B20D462046090EAE
:1005B0000CF040F8601CC5F307410CF03BF8A01CA0
:1005C000C5F307210CF036F8E01CE9B2BDE838406D
:1005D0000CF030B88000F8B505B228460CF010F8E1
:1005E0000746681C0CF00CF80446A81C0CF008F830
:1005F0000646E81C0CF004F8240444EA076420438F
:1006000040EA0620F8BD00BFF8B517211448154C84
:10061000154F164E164D0DF0DFF9164B164AB3F96D
:100620000010164B52F821201B6803EB52021146B2
:10063000002320463A600A220DF0A0FE20460DF06D
:100640008DFE304606F048FF0124284686F8F64025
:1006500006F042FF0A4B85F8F6401C60F8BD00BF6B
:10066000E44F01008431FF1F7C44FF1F5C40FF1FEB
:10067000C445FF1F6860FF1FD844FF1FF05DFF1FC8
:10068000C041FF1FF8B52C4E2C4F2D49B6F9004044
:100690002C4B09683A6853F824302B4D521AA2EBC0
:1006A00053035B081946A0B245F82430FFF77AFFE0
:1006B0000F2126480DF090F900230A2239682448BA
:1006C0000DF05CFE012123480DF086F9B6F90030EB
:1006D0001F4855F823100A2200230DF04FFE1C4836
:1006E0000DF03CFE1C4B1D481A681D490023012AD1
:1006F00080F8F63081F8F63016D01A4C1A4B1B4AA7
:1007000024681B481B491C600023137003600B60A6
:10071000F8BD06F025FF124806F0DEFE0F4806F091
:100720001FFF0E4806F0D8FE0D4806F0C9FE00284F
:100730000B48EEDCE1E700BF6860FF1F7C44FF1F51
:10074000F05DFF1FD844FF1F1862FF1FFC4F010020
:100750008431FF1F0C500100C041FF1FC445FF1F23
:100760005C40FF1FA845FF1F2447FF1F6CA302200A
:10077000045EFF1F9447FF1F2DE9F0473A4800AF82
:1007800006F09EFE0446E4B2384806F099FE012CBD
:1007900002D0BD46BDE8F087C0B20128F9D1344D82
:1007A00031482B68DA0018329B001C336E46ADEBE3
:1007B000020D23F00703EA46ADEB020DE946ADEB6F
:1007C000030D06F0AFFE2A68014650460BF030FCE0
:1007D000264806F0A7FED5F8008001464246484666
:1007E0006C460BF025FCB8F1000F13D0AAF1020003
:1007F000A9F10201002253009BB204EB430E013227
:1008000030F802CF24F813C0904531F8023FAEF81B
:100810000230F0D1DFF86890D9F8000021464FEAA5
:10082000480240000AF016F90F4806F099FE0F48FA
:1008300006F096FE0F4A104BB2F900400F491B68B4
:10084000D9F800002A6851F824105B00024403EB39
:1008500051039A42C9F8002001D8B54699E7FFF73D
:1008600011FFB54695E700BF5C40FF1FC445FF1F61
:10087000442FFF1F6860FF1F342FFF1FD844FF1F46
:100880007C44FF1F2A4BDFED2B6A9FED2B7A93ED03
:10089000006AB4EEE60AF1EE10FA26EE077A07DBFC
:1008A00070EE666ADFED255AF7EE007AE6EEA57A7D
:1008B000DFED206AB4EEE60AF1EE10FA06D5DFEDC0
:1008C000206AB4EEE60AF1EE10FA25DCDFED1C6AD0
:1008D000B4EEE60AF1EE10FA0BD8C0EE267AF7EE87
:1008E000006A77EEE66ADFED175ADFED177AE6EE7B
:1008F000A57A67EE867AB1EE470AB4EE677AF1EE32
:1009000010FA48BFF0EE477AF4EE407AF1EE10FAB2
:1009100058BFB0EE670A704770EE664ADFED0B5ABB
:10092000DFED0B7A84EEA65AE5EE257ACEE700BF1E
:10093000D82FFF1F00E0FF4452B8FE3F5690FD390C
:1009400000C07F44EC51F83FCDCC4CBD3333733FF6
:10095000CDCC4C3D2DE9F04F83468DB00C4661481F
:100960000C210DF039F80BEB040359465E48079350
:100970001C460DF043FD5C480DF0F0FCA34580F2F1
:10098000AD805A4B5A4D5B4C069300230393994616
:100990004FEA0B43A846274602934FF0010A0298FC
:1009A000554E0AF05BF918E02B680893089B226902
:1009B0009B1AB3F57A7F09D93378D8F800200992C9
:1009C000B3FA83F35B09099A33703A612B680A938F
:1009D0000A9BA2699B1A282B19D80AF01DFC002833
:1009E000E2D0029B03F580330293079B0BF1010BCE
:1009F0009B45D4D1069A41480023012113700CF085
:100A0000EBFF39480DF0AAFC0DB0BDE8F08FD8F827
:100A100000300B9309F101095FFA89F90B9BBB6167
:100A2000B9F1140F4FF0040007D9039B83F00103C1
:100A300003938AF0010A4FF00009069A1278012AFE
:100A40000AEB8A0327D004930DF018FD049BC3EB37
:100A5000C30201320244D2B2042005920DF00EFD11
:100A6000049B00EB4300431CDBB2042004930DF015
:100A700005FDBDF80C30059A083010FB03F0C0B23C
:100A800000210190049B00911D480BF07DFA1C4849
:100A90000BF07CF9A1E702200DF0F0FC059004209A
:100AA0000DF0ECFC0AEB4A0300EBC300431CDBB285
:100AB000042004930DF0E2FCBDF80C30059A0830D8
:100AC00010FB03F1C9B20420013201910090049B94
:100AD0000B48D2B200210BF057FAD8E7034B06932C
:100AE00088E700BF105001008431FF1F4C48FF1FF2
:100AF000B0BC02201C5BFF1F3040FF1F0C500100E8
:100B0000305CFF1F2DE9F04F0746ADF6944D0123F1
:100B100007EB470B14A8AC4AAC4907F0B5FC4FEA09
:100B20000B1301934FEA0B58002515E005AB9DF818
:100B300008201B5D9A4200F0D9801CA807F032FB08
:100B400010A80DF09FFC0CA80DF09CFC08A80DF05F
:100B500099FC1CA807F006FB1CA8012214A907F0A9
:100B600015FD1CA807F02CFB002800F0C5801CA870
:100B700007F0FAFA7C1C014608A80DF0C3FC0A2213
:100B800021460CA80DF0F0FC1CA807F0EDFA014678
:100B900010A80DF0B7FC8E4B18685968B3F808E040
:100BA0009E7A05AA03C20023A2F800E0967010A85E
:100BB00002A90B220DF032FD082FB7D9092FBCD1A5
:100BC0009DF80830312BB8D19DF80930302BB4D1C5
:100BD0000DF5926610A930460DF0A8FC7D4930460F
:100BE0000DF00EFD01467C480DF092FB7A480DF0A9
:100BF000B5FB30460DF046FC30210198FFF7AAFE08
:100C00001CA807F0B1FA0C2174480CF0E5FE042191
:100C100073480CF0E1FE1CA807F0C0FA002301465F
:100C20000A2281466C480DF0A9FB0E216D480CF09C
:100C3000D3FE00230A22394667480DF09FFB664821
:100C40000DF08CFB24AC00211CA807F09DFA2C228F
:100C500021461CA807F092FA94F816A062481021C9
:100C60000CF0BAFE00230A2251465B480DF086FBC9
:100C700094F822B05D4813210CF0AEFE59460023D3
:100C80000A2255480DF07AFB53480DF067FBBAF184
:100C90000A0F63D0BAF1010F45D0BAF1020F7FF409
:100CA0004CAFA9F5826ABAF12C0F88BF2C2613D954
:100CB00031461CA807F068FA4FF4806221461CA850
:100CC00007F05CFA4FF4806208EB060021461644F8
:100CD00009F0C0FE5645EBD34FEA9903444A194642
:100CE000384642F82730FFF75DFC26E79DF80930CB
:100CF000302B7FF46DAF20E710213E480CF06CFEE6
:100D000035480DF02BFB1CA807F02CFA14A807F0AF
:100D100049FA0A200BF0EAFD14A807F023FA0DF6B1
:100D2000944DBDE8F08FA9F5826ABAF12C0FD3D9A2
:100D30002C2631461CA807F027FA4FF48062214682
:100D40001CA807F01BFA4FF4806208EB060021464E
:100D5000164409F07FFEB245EBD8BDE7A9F5826ADB
:100D6000BAF12C0F88BF4FF02C0B29D959461CA87B
:100D700007F00AFA4FF4806221461CA807F0FEF93A
:100D800032460DF5496C0021601814F801E04078F6
:100D900006F811E0043202F8030C02F8025C02F8D3
:100DA000015C624501F10201EED10BEB08004FF44A
:100DB000006231460BF5806B09F04CFED345D5D36C
:100DC0004FEA59038AE700BF2050010028BA0220E9
:100DD000A04F0100385001008431FF1F4450010032
:100DE0003452010054500100645001007850010059
:100DF0001862FF1F245001002DE9F04100243D4FEF
:100E000084B021461D203C800BF032FD01211E20C4
:100E10000BF02EFD214602200BF02AFD01210220BD
:100E20000BF026FD0DF1FF3426460DF10F080F25BE
:100E300004200BF023FD3B8806F8010FA840034374
:100E4000012103203B800BF013FD002103200BF058
:100E50000FFD464505F1FF35EAD101211D200BF0BC
:100E600007FD254D01211E200BF002FD234905F150
:100E70000A062A4612F8013B04A80344B24213F8BA
:100E8000103C01F8013BF5D101211D200BF0F0FCD5
:100E900000211E200BF0ECFC002102200BF0E8FCEE
:100EA000012102200BF0E4FC04200BF0E7FC0121FF
:100EB00004F8010F03200BF0DBFC002103200BF0F2
:100EC000D7FC4445F0D101211D200BF0D1FC0121BC
:100ED0001E200BF0CDFC0A4A15F8013B04A90B4477
:100EE000B54213F8103C02F8013BF5D104B0BDE85F
:100EF000F08100BF76A30220C82FFF1F5C44FF1FB4
:100F00005CA302202DE9F04F584B59491B68594802
:100F10008FB00D930D9A0B680260D31A012B40F22B
:100F2000D58155480A600378544DDFF87CA1DFF87D
:100F30007CB1DFF87C91DFF87C81B3FA83F35B0945
:100F400003704F4B4FF6FF721A804E4B00241C70FB
:100F50004D4B2C701C704D4B1C70FFF74DFF4C4BD4
:100F60004C49B3F8A2CCB3F8A03C06934A4B0B947F
:100F7000B3F8A2ECB3F8A03C0593484B0994B3F83E
:100F8000A23C0393454B0794B3F8A03C0A93444B0F
:100F90000494B3F8A23C0193414B0294B3F8A03CF3
:100FA0000893274625462346009413F80B0019F8AA
:100FB000034084420CD0DCB2022C00F0B181032C3F
:100FC00000F0AA81012C00F0A38101274FF0000E50
:100FD0001AF80340012C00F07C810133042B01F14D
:100FE0000101E2D1009A002D40F0B681029B23B1AD
:100FF0002B4BBDF80410A3F8A21C049B23B1274B74
:10100000BDF80C10A3F8A21C17B1234BA3F8A2EC57
:10101000079B23B11E4BBDF81810A3F8A01C099B19
:1010200023B11F4BBDF82010A3F8A01C0B9B23B1CC
:101030001A4BBDF82810A3F8A01C22B1164BBDF81E
:101040001420A3F8A02C0F4BDFF86CC01B78019381
:101050000B4B144CB3F9003003930B4B00201B785F
:10106000009305460590049002902AE0B0BC02204F
:101070001C47FF1F3044FF1F9847FF1F382FFF1FDB
:101080006860FF1F4CB502205863FF1F9061FF1F6F
:101090006C89FF1F2D47FF1F5C63FF1F0C70FF1F34
:1010A000BC7CFF1F402FFF1FC02FFF1F3C2FFF1FC7
:1010B0005444FF1F5C44FF1FC42FFF1F01350A2D3E
:1010C0003AD018F80530012B00F10100F6D1019A51
:1010D00022B90593019304932BB20393009A032A38
:1010E000134606D8A34901338854DBB20122029289
:1010F0000093DFF884A2DFF884B25746DE469E4AAA
:101100009E4B002613F8011B814200F02981A34267
:1011100002F10102F6D117F8013B33B92EB94FF0B5
:1011200001038EF8000007F8013C67450EF1010E3F
:10113000E5D101350A2DC4D1029B002B40F08081FE
:10114000049B1BB18E4BBDF80C201A80059B1BB174
:101150008C4B9DF804201A708B4B8C48B3F8A2CCB2
:101160008B4BB3F8A2EC8B4BB3F8A23C00938A4BA9
:10117000B3F8A23C0293864BB3F8A03C0393864B92
:10118000B3F8A03C0693804BB3F8A03C0493814B8A
:101190000024B3F8A03C08930994059407942746CB
:1011A0000194A0462546234613F80B2019F8031096
:1011B00091420CD0D9B2022900F02081032900F01D
:1011C0001981012900F0128101274FF0000E1AF851
:1011D000031009F80320022900F0EA800133042BF0
:1011E00000F10100E0D1002D40F02681B8F1000FA0
:1011F00004D0694BBDF80820A3F8A22C019B23B1B1
:10120000644BBDF80020A3F8A22C17B1604BA3F8E3
:10121000A2EC079B23B15C4BBDF81020A3F8A02CD7
:10122000059B23B15C4BBDF81820A3F8A02C099BAB
:1012300023B1584BBDF82020A3F8A02C24B1544B67
:10124000BDF80C20A3F8A02C544BDFF858E193F81C
:101250000080DFF854C1524CDFF850B101204FF04C
:10126000000A4FF0020902E001300B2828D01EF8D6
:10127000013B012BF8D1B8F1030F06D808F10102A8
:101280000BF808009A465FFA82F83B4E3B4F3A4A09
:101290003A4B002513F8011B814266D0A34202F1AC
:1012A0000102F7D116F8013B1BB915B9387006F8E1
:1012B000019C664507F10107E9D101300B28D6D121
:1012C000BAF1000F02D0354B83F800800FB0BDE8B3
:1012D000F08F404410F8010C00287FF47EAEDEB29F
:1012E000254A0BF80300022ED05408702AD0032E92
:1012F0001BD0012E1FD0022E2BD0032E00F0A88071
:10130000012E00F0A280009405902746864664E6F0
:101310000494002403945BE601254FF0000C57E68B
:10132000012402940024019452E6079406900125BA
:101330004FF0000C51E60B960A9001220492002215
:1013400003924AE609940890012202920022019237
:1013500043E600940590F7E70B4BA3F8A2CC45E6D3
:101360001178012908BF0126D1E61178022908BFAA
:10137000012593E7FC46FF1FC02FFF1F3C2FFF1FD7
:101380006860FF1F4CB502206C89FF1F3247FF1FAA
:101390005C63FF1F0C70FF1FBC7CFF1F9061FF1F71
:1013A000402FFF1F5CA30220C42FFF1FFCB40220AC
:1013B0002C490A4412F8012C002A7FF40FAFD9B24D
:1013C000294E0BF803200229F254027029D0032978
:1013D00020D0012917D002292BD003293ED0012982
:1013E00039D00124039296462746F7E60191002161
:1013F0000091ECE601254FF0000CE8E600214FF0EB
:1014000001080291E3E609910892002101228DE88A
:101410000600E3E604920122079201254FF0000C3A
:10142000DCE606920122059200224FF001080292AA
:10143000D4E603920124F7E70C4BA3F8A2CCD5E63F
:101440000B4B9DF800201A707AE60096059074E721
:10145000009405906BE70C460392D6E703920124B3
:10146000DBE700BF5CA30220C02FFF1F6C89FF1FBA
:101470005863FF1FF8B55B4A5B4B1C685368E31A5F
:10148000322B00D8F8BD022158485460584F594EAD
:101490000CF0A2FA00240EE0012157480CF09CFA4F
:1014A000012156480CF098FA042C00F091800A2D86
:1014B00016D001362C4617F8011B012904F101054D
:1014C00007D03378012BE7D001214D480CF084FA86
:1014D000E6E74C480CF080FA3378012BE0D1DBE7EB
:1014E00049484A4C0CF03AFF47480CF037FF0521B9
:1014F00047480CF071FA44480CF030FF251D14F8F1
:10150000011F414800230A220CF038FF01213B480B
:101510000CF062FAAC42F2D13B483E4C0CF01EFF9C
:10152000251D14F8011F384800230A220CF026FF5D
:10153000012132480CF050FAA542F2D13248364C23
:101540000CF00CFF30480CF009FF102133480CF070
:1015500043FA251D14F8011B2B4800230A220CF026
:101560000DFF012125480CF037FAA542F2D126489B
:101570002B4C0CF0F3FE10212A480CF02DFA251DFF
:1015800014F8011B204800230A220CF0F7FE012169
:101590001A480CF021FAA542F2D11B480CF0DEFEED
:1015A0000B2121480CF018FA17480CF0D7FE1F4BFE
:1015B0001548B3F900100CF021FF13480CF0CEFED3
:1015C00011480CF0CBFE1048BDE8F8400CF0C6BE48
:1015D00017490D48FEF768FF04490B48FEF756FF10
:1015E00067E700BF1C47FF1F3044FF1F8C500100FE
:1015F0005C44FF1F5CA30220945001000C500100CA
:10160000D4500100905001008431FF1F2C47FF1F70
:10161000985001003147FF1F3C2FFF1FA0500100D1
:10162000C02FFF1FB4500100C85001006860FF1FA9
:10163000385201002DE9F041394F3A4C3E68DFF84D
:10164000ECE04FEA400C01360CEB000396FBF1F5A1
:1016500001FB1566DD003E602E44002924F81620AB
:101660000CDD0D4404EB450504EB03120EEB4314B3
:1016700032F8023B44F8043BAA42F9D10CEB0008D3
:101680000EEB48184E1E434601270022B24202F1DB
:1016900001020DDA1D6853F8044FA542F6DDB2428F
:1016A0001D6043F8044C4FF0000702F10102F1DB2A
:1016B000002FE8D001EB81031B4A03EB031382FBED
:1016C0000354DB17C3EB6413C1EB011182FB01422E
:1016D0000133C917C1EB62149E42A8BF1E46012CFC
:1016E000B8BF0124A64217DD0CEB0003DB0003F1B9
:1016F0008042013A234432440EEB8303043B0EEB59
:10170000820E002253F8041F73450A44FAD1301B9D
:1017100092FBF0F0BDE8F08100221046F8E700BF30
:10172000FC3FFF1F2842FF1F1F85EB51103CFF1F8E
:10173000F8B5032805D8DFE810F0E9008C0029008F
:101740000500F8BDC94CCA48CA4AB4F8A43C50F8D0
:10175000215052F82160002B00F03681012BF0D18E
:10176000002203204FF440716665E562C4F8986C6E
:1017700025636566A4F8A23CC4F8882C6262A4F8CC
:10178000802CA4F8A80CA4F8A61CF8BDBA4CB84844
:10179000B84AB4F8A43C50F8215052F82160002B0C
:1017A000DCD1B64FB648C4F8983C4021C4F8883C18
:1017B0006362A4F8803CA4F8A83CA4F8A63C666543
:1017C000A565266606F032FB3B88A16DD4F8980C1F
:1017D000B4F8842C013301EB800004F58E613B806A
:1017E00008F0DCFE3B88002B40F05D814021A448DE
:1017F00006F032FBB4F884EC0022AEF1040E9645FC
:10180000A4F848201FDD13462344571C93F873C4E3
:1018100093F8720493F8711493F87034BFB243EAEA
:101820000121BB0040EA0C209BB204EB420C02F207
:101830003C429E4524F81210ACF87C0A3AB28E491C
:10184000E2DCA1F848200123A4F8A23CB4F8A43CAF
:1018500084E78C4C8648874AB4F8A43C50F8215061
:1018600052F82160002B7FF479AF844F8448C4F88C
:10187000983C4021C4F8883C6362A4F8803CA4F8FA
:10188000A83CA4F8A63C6665A565266606F0CEFAD7
:101890003B88A16DD4F8980CB4F8842C013301EB8B
:1018A000800004F58E613B8008F078FE3B88002BB9
:1018B00040F000814021724806F0CEFAB4F884EC82
:1018C0000022AEF1040E9645A4F84820BBDD134675
:1018D0002344571C93F873C493F8720493F871145B
:1018E00093F87034BFB243EA0121BB0040EA0C20F8
:1018F0009BB204EB420C02F23C42734524F81210F6
:10190000ACF87C0A3AB25F49E2DB9AE75E4C584891
:10191000584AB4F8A43C50F8215052F82160002BEA
:101920007FF41CAF554F5648C4F8983C4021C4F88A
:10193000883C6362A4F8803CA4F8A83CA4F8A63CC8
:101940006665A565266606F071FA3B88A16DD4F838
:10195000980CB4F8842C013301EB800004F58E61FF
:101960003B8008F01BFE3B88002B40F08F8040211D
:10197000434806F071FAB4F884EC0022AEF1040E8C
:101980009645A4F848207FF75EAF13462344571CC2
:1019900093F873C493F8720493F8711493F8703445
:1019A000BFB243EA0121BB0040EA0C209BB204EB2A
:1019B000420C02F23C42734524F81210ACF87C0A47
:1019C0003AB23149E2DB3CE72C4F2D48C4F8983C51
:1019D0004021C4F8883C6362A4F8803CA4F8A83C89
:1019E000A4F8A63C6665A565266606F01FFA3B8846
:1019F000A16DD4F8980CB4F8842C013301EB80006D
:101A000004F58E613B8008F0C9FD3B88002B44D172
:101A100040211B4806F020FAB4F884EC0022AEF115
:101A2000040E9645A4F84820C8BF13467FF70BAFB5
:101A30002344571C93F873C493F8720493F87114F9
:101A400093F87034BFB243EA0121BB0040EA0C2096
:101A50009BB204EB420C02F23C42734524F8121094
:101A6000ACF87C0A3AB20149E2DBEAE66C89FF1F76
:101A7000D844FF1F1862FF1FBC7CFF1F24BA02203E
:101A8000E02FFF1F0C70FF1F5C63FF1F013B9BB229
:101A90003B80002B3FF46BAF6DE7013B9BB23B807B
:101AA000002BB5D0B8E7013B9BB23B80002B3FF445
:101AB0009DAE9FE6013B9BB23B80002B3FF4FAAE0C
:101AC000FCE600BF70B5094D094E002415F8013B36
:101AD000012B03D00134042CF8D170BDA15D013974
:101AE000C9B2E0B2FFF724FEF4E700BFC02FFF1F2A
:101AF0003C2FFF1F70B5094D094E002415F8013B1E
:101B0000022B03D00134042CF8D170BDA15D013942
:101B1000C9B2E0B2FFF70CFEF4E700BFC02FFF1F11
:101B20003C2FFF1F03281BD8DFE800F03B2B1B02D4
:101B3000B5EEC00AF1EE10FA43D4DFED377AB4EE19
:101B4000E70AF1EE10FA3EDC9FED347AF6EE007A09
:101B5000E0EE077AFCEEE77A17EE903A304AD3636C
:101B60007047B5EEC00AF1EE10FA51D4DFED2A7AD3
:101B7000B4EEE70AF1EE10FA27DD2A4B2A4AD363C6
:101B80007047B5EEC00AF1EE10FA43D4DFED227AC9
:101B9000B4EEE70AF1EE10FA2DDD224B234AD363AF
:101BA0007047B5EEC00AF1EE10FA2FD4DFED1A7AC5
:101BB000B4EEE70AF1EE10FA12DD1A4B1C4AD363B9
:101BC00070470023CAE7174BC8E79FED147AF6EE7B
:101BD000007AE0EE077AFCEEE77A17EE903ACDE76E
:101BE0009FED0E7AF6EE007AE0EE077AFCEEE77AE9
:101BF00017EE903AE2E79FED097AF6EE007AE0EE12
:101C0000077AFCEEE77A17EE903AC7E70023D5E7AC
:101C10000023B3E70023C1E7A655AC464B243E475B
:101C20006C89FF1FC0FFFF3FBC7CFF1F0C70FF1FB4
:101C30005C63FF1F032810D8DFE800F014121002C5
:101C4000094B93F8AD0C83F8AD1C8AB29042A3F80F
:101C5000A42C1CBF0122A3F8802C7047034BF0E793
:101C6000034BEEE7034BECE76C89FF1FBC7CFF1FC7
:101C70000C70FF1F5C63FF1F2DE9F0472520524DBC
:101C8000524C534E534F0AF0F1FB2B88184480B24C
:101C9000431D9BB20A2B8CBF03B200232620238056
:101CA0000AF0E4FB2B884C4D184480B2431D9BB2D4
:101CB0000A2B8CBF00B20020288020200AF0D6FB1F
:101CC000C0F57F620F3213210420FFF7B3FC308090
:101CD00023200AF0CBFBC0F57F620F3213210320D3
:101CE000FFF7A8FC3288B4F900303C493C4E08802C
:101CF000D31800EE103AB8EEC00AFEF7C3FDB5F9EE
:101D0000003086ED000A13FA80F300EE103AB8EEC8
:101D1000C00AFEF7B7FD334D87ED000AB946B0465D
:101D2000002415F8011B01291BD0022904D001341D
:101D3000042CF6D1BDE8F08797ED000AB5EEC00A95
:101D4000F1EE10FA21D4B5EEC00AF1EE10FAEEDB96
:101D5000E1B20846FFF7E6FE08460021FFF76AFFFA
:101D6000E5E796ED000AB5EEC00AF1EE10FA19D4D7
:101D7000DDDB5FFA84FA5046FFF7D4FE50460021BF
:101D8000FFF758FF15F8011CCFE7E1B2B1EE400AAA
:101D90000846FFF7C7FE08460121FFF74BFF99ED04
:101DA000000AD0E75FFA84FAB1EE400A5046FFF726
:101DB000B9FE5046FFF73EFF98ED000AB5EEC00AA7
:101DC000F1EE10FAD7DADDE7DC2FFF1FCC5CFF1F46
:101DD0001C45FF1F185BFF1FCE5CFF1F0C3CFF1F45
:101DE000C045FF1FC02FFF1F022810B42CD00328AE
:101DF00027D0012802D05DF8044B704772B6144911
:101E0000B1F91E30B1F9202047F6FF744FF40040BD
:101E1000CC83088462B683EAE371A1EBE37182EAC2
:101E2000E273A3EBE2738B42B8BF0B4607EE903A26
:101E30009FED087A5DF8044BF8EEE77A87EE870AA3
:101E4000704772B60449DBE772B60449D8E700BFB1
:101E500038B6022000FEFF469860FF1FD847FF1FDC
:101E6000022818D003280ED0012801D01846704748
:101E700072B60D490A7F02F0FF030AB100220A7709
:101E800062B61846704772B608490A7F02F0FF032F
:101E9000002AF5D0F2E772B605490A7F02F0FF0387
:101EA000002AEBD1ECE700BF38B602209860FF1F94
:101EB000D847FF1F2DE9F04FDFF84093A7B00AF095
:101EC000F1FCD9F80030B14AC31A92ED007A07EE5E
:101ED000903AF7EE006AF8EE677A37EE667A0646D1
:101EE000F4EEC77AF1EE10FA80F25D84A84CA94DA9
:101EF00023782B701A200AF0C1FC2B782070002B5D
:101F000000F0B584A44B0493A44BA5491B6815931A
:101F1000159A0B68A348A44C0A60D31AB0F90010B4
:101F200023601BB28B42C4BF194603809F4DA04B58
:101F30002A601980DFF8E0B2FFF79EFEFEF7E2FFAD
:101F40009C499D4A00235C46A1F118071E464CF6A9
:101F5000CC4E14F8010B022800F0F983012816601A
:101F600000F0F283981D47F820600133042B01F143
:101F7000040102F10402ECD19048DFF8A0A203F0C2
:101F8000DDFF8F4803F0DAFF8E4803F0D7FF8E485D
:101F900003F0D4FF8B4803F0AFFF8C4AB0FA80F314
:101FA0005B098948537003F0A7FFDFF828E2874AEE
:101FB0009EF80130B0FA80F040099070002B40F09C
:101FC000C983834F9EF80230824933B12B68DAF817
:101FD00008209B1A322B00F2CA837F4B7F4C93F868
:101FE000AC3C06937E4B7F4993F8AC3C0A937E4B06
:101FF000079093F8AC3C0C937C4B089793F8AC3C5F
:102000000B939EF802300F932B680393DAF8083095
:102010000E93BB7809939EF801301393DAF80430DD
:10202000119300267B78059310961296B0460D9674
:10203000029633461BF80320012A00F06583022A2A
:1020400000F043830133042B04F1010401F1010189
:10205000F0D1029B0798089F002B41F03F830D9B16
:10206000002B41F04183B8F1000F02D09DF82430DD
:10207000BB70129B1BB19DF84C308EF80130109B49
:1020800013B1119BCAF8043016B19DF814307B705F
:102090004E4B574C79785A7894F801E0BB78A67883
:1020A000544F0A44BEF1000F14BF1146511CC9B26F
:1020B000002E14BF1E465E1C012928BF012130449A
:1020C000C6B281F0010105200AF0D2FB012E314693
:1020D00028BF012181F0010115200AF0C9FB6378B6
:1020E0007B7019200AF0CAFBA37860701820BB70BF
:1020F0000AF0C4FB7A78A070012A01F00B803E4EF2
:10210000BA78DFF81C812B6898F801E0012A01F009
:102110003980BEF1010F01F05D8098F80220012A9C
:1021200001F022803268023200F0CA87D9F80C2010
:1021300032499A1A2A2A0CD93148CB600378002BED
:1021400041F033802F4A002313702F4809F01EFE00
:102150002B68D9F8042029499A1A2A2A7ED92B4FAC
:10216000DFF8C090DFED2A6ADFED2A5A4B604FF0AE
:102170000108B6EE006A5FFA88FA5046FFF770FE73
:10218000002840F0AE84D7ED017A4DE0B45DFF1F2A
:102190009841FF1F1447FF1F3CA40220B0BC02203F
:1021A0001847FF1F5441FF1F9444FF1FA845FF1FFE
:1021B000085BFF1F7848FF1F5C5CFF1F8447FF1F01
:1021C000F45DFF1F085EFF1F6C44FF1F5861FF1F77
:1021D0009844FF1F0CB602205C63FF1FC85CFF1F02
:1021E0000C70FF1F7441FF1F6C89FF1FBC7CFF1F19
:1021F0008060FF1F8041FF1F045EFF1F1C5BFF1FED
:102200006061FF1F1440FF1F305CFF1F3CB50220C0
:10221000CDCCCC3D00000000C02FFF1FA05AFF1FF7
:1022200068A402207C5CFF1FF4EEE67AF1EE10FA5F
:10223000C8BF67EE867A08F10108F4EEE67AC8BFF7
:10224000C7ED017AF1EE10FA98BFC7ED015AB8F167
:10225000040F09F1040907F104078CD122200AF0C8
:1022600005F9C0F57F620F3213210220FFF7E2F972
:10227000C44BC0F38F000228188000F2F383C24BD6
:10228000DFEDC27AC24AC3ED007A00235362049A9A
:102290001370B0EE677ABEEEC87A17EE103ADFF828
:1022A0009083BC4ABC4FB8F80010536210203980AC
:1022B0000AF0DCF8132102460020FFF7BBF93B8847
:1022C00080B2021D934200F38D83021F9342C0F23D
:1022D0008983049BB14F1B78002B40F08F833B8890
:1022E000AF49B04ADFF84C939B1051F823101160AE
:1022F000C9F800100131AC48DFF83C8304F0FEF867
:10230000D9F80010C8F800000131A84804F0F6F828
:10231000D8F800203B889FEDA67ADFEDA66AA64894
:10232000A649A74FC2F54342903207EE902AC3F563
:102330007F63F8EEE77A0F33DB1127EE877A07EE3B
:10234000903AF8EEE77A27EE267A0260FCEEE76A2A
:102350009C4A9D48C1ED596A80ED007AC2ED596AE8
:102360002120C7ED007A0AF081F8C0F57F620F32B4
:1023700092B213210120FFF75DF906EE900A9FED5E
:10238000936A934B9FED937AD3ED007A924AF8EEDD
:10239000E65A37EEC77AC5EE866AF4EEC76AF1EE02
:1023A00010FA44BFF0EE477A83ED007A9FED897A08
:1023B000C2ED006A37EE877AF4EEC76AF1EE10FAE2
:1023C000C4BFF0EE477A83ED007A9FED847AF4EE95
:1023D000C77AF1EE10FA00F380839FED817A814A8B
:1023E000F4EEC77AF1EE10FA5BBFB0EE677ABEEE9C
:1023F000C87A7D4B17EE103A9FED787A9361F4EE30
:10240000C77AF1EE10FA01F374819FED757AF4EE5C
:10241000C77AF1EE10FA00F1C586B0EE677ABEEE2B
:10242000C87A17EE103A714971488B614FF0000974
:10243000C1F81C90C2F81C9003F0B0FD6D4F00284D
:1024400040F03983DFF8F481694803F055FD002836
:1024500040F0C582684B1B78002B40F0C082674B70
:10246000674A1B681793179B12689B1AC8F80030BD
:1024700040F2EE2293420DD95F4833686149012250
:10248000027000208342C8BF0133C8F80000D4BFE7
:102490000A600B60564803F077FD10B10023C8F8BE
:1024A0000030594803F07AFD002840F02C833B6847
:1024B000504AB3F57A7F06D95449554801230B7029
:1024C000002103701160504803F016FD18B93368FD
:1024D000012B00F0E2824C4803F060FD4D4803F010
:1024E0005DFD78B14C4B2A681A6033684749DFF8C4
:1024F0001481002293420A703A6041F31880012B44
:1025000000F0FA87454803F049FD78B1424B2A684C
:102510001A6033683D49DFF8EC80002293420A706C
:102520003A6041F30A80012B00F0E087394803F05C
:10253000E3FC8046002800F05184384803F0DCFCBE
:102540008046002800F04683354B1B68012B00F0C5
:10255000B4833068821C00F0B683431C00F0EC8129
:10256000002840F0A0802F4BDFED2F6A93ED036A27
:1025700093ED027AD3ED017A2C4B009037EE067A78
:102580005EE000BF4063FF1F8445FF1F00000000A6
:10259000C05BFF1FF85BFF1FAC5AFF1F74A3022034
:1025A0001449FF1F8045FF1F9CB402202045FF1FD8
:1025B0004B24BE3700247449405EFF1F2C59FF1F77
:1025C000B05AFF1FB85EFF1FB45DFF1F0080634459
:1025D0003C63FF1F8FC2F53C3461FF1F00FEFF46C6
:1025E00000FEFFC6B85DFF1F000001807C5DFF1F7D
:1025F0008447FF1F9447FF1F6461FF1FB0BC022088
:102600001049FF1F045EFF1FF45DFF1F6CA3022033
:102610004C48FF1F085EFF1F2447FF1F6C44FF1F2D
:10262000C041FF1F3CB50220000030421440FF1F94
:102630003EA402205CB602208CB50220FC3BFF1FAA
:10264000B6EE006A77EE277AB0EE087A67EEA67AE1
:10265000F3EE016AA7EE867A19785A78DFF8D092FD
:10266000DFF8D08277EEA67ABDEEC77AFDEEE77A84
:1026700017EE103A17EE904A0531891A134481F388
:102680000801A21AC9B283F3080382F30802019178
:10269000DBB2C9F818000146C8F81800D2B2974852
:1026A00009F072FC3068012800F03684022800F03E
:1026B0006B84032800F04787042800F0448605282F
:1026C00000F0958527B0BDE8F08FDAB2022A00F05D
:1026D000A980032A00F09380012A207856D0069F13
:1026E000B8420BD04FF001080398CDF82480CDF804
:1026F0003480CDF80880CDF83C800E90022A40F05E
:10270000AC800B9A22709DE4D8B202285BD00328DB
:1027100067D001282FD00F78BC46069FBC4500F03B
:10272000A480039F139216461092129211970228CA
:1027300053D003285FD0012808BF104640F08480A2
:102740000A9A05900A707DE4C1F800E00DE4C2F831
:1027500000E007E42B68DAF80420694F9B1A322B5B
:102760007FF630AC00237B708EF801302AE4002322
:102770008B70BB7031E40A780A9FBA4273D0039A17
:1027800013900646109012901192D9E70A9FB84212
:1027900067D003980F9290460D9202920E90099284
:1027A0000A9A22704EE40AF07DF8564AC9F80000F1
:1027B0001378B3FA83F35B091946142013700AF0F7
:1027C00057F8FFF793BB08780B9FB84243D00398A4
:1027D0001392164610921292119005920B9A0A705B
:1027E00030E408780C9FB84233D003981392164611
:1027F00010921292119005920C9A0A7022E422789B
:102800000C9882420BD04FF00108039ACDF8248037
:10281000CDF83480CDF80880CDF83C800E920C9A2B
:1028200022700FE422780B9882423FF46AAF4FF097
:102830000108039ACDF82480CDF83480CDF80880C3
:10284000CDF83C800E925CE70592069A0A70FFF77D
:10285000F9BB059ACFE7059ABFE7032ADFD0012A23
:1028600046D1099A9BE705986AE7059A5FE7012830
:102870007FF448AB244A254C17682178244D166014
:10288000F61B45F821606A682E689FED225ADFED3D
:10289000225A9FED227A224F224D0497520802EBD2
:1028A000560207EE902AF8EE677A0131C7EE856A84
:1028B000C9B2012988BF23701B4B98BF21702A60C1
:1028C000387093ED006A66EEA57AA7EE867AF1EE8F
:1028D000477AFDEEE77A17EE903A002B0CDD4CF2CA
:1028E00045329342A8BF1346104A1360FFF70CBB52
:1028F000069A2270FFF7A6BB0123F5E7305CFF1FA5
:102900009844FF1F5B61FF1FD03FFF1F5C61FF1FEB
:102910000462FF1F00007A44C976B041005043C7EB
:102920003CA4022098B40220445EFF1F8045FF1F94
:10293000CC61FF1F9461FF1F864803F0DDFA012878
:1029400000F05086834803F0D7FA38B9DFF8709268
:10295000DFF87082C9F81800C8F818007E4BDFED68
:102960007F6A93ED027AD3ED037A93ED016ADFED8E
:102970007C5A77EE277AB6EE005A77EE867AB2EE78
:10298000006A27EEA67AF0EE466AE7EE056AF4EEF4
:10299000E57AF1EE10FAFDEEE66A80F2B38537EEE5
:1029A000067A704BBDEEC77A187817EE103A0130F0
:1029B00083F3080116EE903AB0F5807F83F30802A6
:1029C00008BFFF2040F0B085C9B2002300910190FC
:1029D000D2B26548194609F0D7FA3068C0E5D8F890
:1029E000003045E5C0F57F63604FA8F800000F3365
:1029F0003B80049B1B78002B3FF471AC012B40F013
:102A0000F0833B88DFF8C0C1DFED596ADFF8BC9185
:102A100007EE903AF8EEE77ABCE80F0087EEA67A68
:102A20000DF1600EAEE80F00BCE80F00AEE80F003D
:102A3000BCE80F00AEE80F00FCEEC77A9CE803008C
:102A4000CDED027A9DF808308EE8030026AA02EB4D
:102A50008303484953F8382C474B0968C9F80010DC
:102A60001A6047E400EB4000801007EE900ADFEDAB
:102A7000436A9FED437A1880B8EEE76A414BC6EE91
:102A8000267AF4EEC77AF1EE10FAC3ED007A40F33D
:102A90003F863D4A3D4B536201E43D4B1B78002B82
:102AA0007FF419AD3B4B3C4A1B681893189B126886
:102AB0009B1A3B600FE5384A38492B6813600B605E
:102AC000334ADFF80C81364BC7F8009082F800904B
:102AD000C8F8009083F80090B6E4324A2B4B93611B
:102AE000A1E45046FFF780F9D7ED017A89ED010A9C
:102AF000B4EEE70AF1EE10FAC4BFF0EE407A87EDCB
:102B0000010AFFF791BB134803F0F6F900283FF4E0
:102B1000CEAC254803F0F0F900283FF4C8AC2348B8
:102B2000326823490023A0F8A23C2248A0F8A23C26
:102B30002148A0F8A23C21489A42A0F8A23C40F3C8
:102B40000A84154B124A29681960002313703B60F0
:102B5000B9E400BF085EFF1F3CB5022000004842F8
:102B60006666263F1440FF1F305CFF1F74A30220DF
:102B7000004092438045FF1F445EFF1F00C07F441A
:102B800000FEFF468445FF1FC05BFF1F0000FF7F64
:102B90006CA30220B0BC02202447FF1F1049FF1F76
:102BA0006461FF1FB85DFF1F6C44FF1F5C63FF1F64
:102BB000045EFF1F0C70FF1FBC7CFF1F6C89FF1F92
:102BC000CC61FF1F9461FF1FAC4F01005CB6022077
:102BD000FC3BFF1FBC4803F0E1F9029000283FF4E2
:102BE000B3ACBA4ABA4BB2F8A0ACBA4A9978B2F8C8
:102BF000A02C0492B84A9BF80090B2F8A02C059241
:102C0000B1FA81F25209B9F1020FB4489A7000F09A
:102C1000458343780393022B00F0B5839BF802E0D1
:102C2000CDF81880BEF1020F00F04A83002307930D
:102C30009BF803C0BCF1020F00F09483079B23B103
:102C4000A44BBDF81020A3F8A02C069B002B40F04D
:102C50005A8539B39D4BB3F8A2AC9E4BB3F8A28C06
:102C60009D4BB9F1020FB3F8A22C00F0F283039B45
:102C7000022B4FF0000900F07084BEF1020F00F04B
:102C80006E8400230293BCF1020F00F00C84029BBF
:102C900013B1904BA3F8A28CB9F1000F02D08B4B6B
:102CA000A3F8A2AC8E4A8F4B2968116001221A70DA
:102CB0008D4B1B68012B7FF44CACFDF75DFD30683C
:102CC000821C7FF44AAC894803F05EF998B19BF806
:102CD0000030012B00F0E6849BF80130012B00F05E
:102CE000DB849BF80230012B00F0D0849BF803308A
:102CF000012B00F0C5847E4803F046F998B19BF89B
:102D00000030022B00F0B6849BF80130022B00F05B
:102D1000AB849BF80230022B00F0A0849BF80330B8
:102D2000022B00F09584714803F0E6F808B163784F
:102D30004BB9DFF8DC91DFF8DC814FF48033C9F860
:102D40001830C8F81830694803F0D6F8012800F0A8
:102D50002484684B9FED687AD3ED036AD3ED027A41
:102D600093ED015A9FED656A77EEA67AF0EE005A70
:102D700077EE856AF3EE067A26EE877AF4EEC66A77
:102D8000E7EE257AF1EE10FAFDEEE77A80F299830C
:102D90009FED5B6ADFED5B6A5B4BE7EE066A1878D6
:102DA00017EE903ABDEEE67A013017EE102AB0F534
:102DB000807F82F3080283F30801D2B24FF00A0346
:102DC00008BFFF2040F09083C9B20091019000211C
:102DD0004E4809F0D9F83068FFF7BFBB3A4803F016
:102DE000DDF8824600283FF4A8AB384A384BB2F8E9
:102DF000A02C0392374A5978B2F8A02C0492364A94
:102E00009BF80090B2F8A02C0592B1FA81F2520919
:102E1000B9F1010F31485A7000F06C824378029387
:102E2000012B00F0D4829BF802E0CDF81880BEF1AF
:102E3000010F00F07282002307939BF803C0BCF1DE
:102E4000010F00F0B382079B23B1224BBDF8102085
:102E5000A3F8A02C069B002B40F04E8459B31B4BCB
:102E6000B3F8A23C03931B4BB3F8A28C1A4BB9F1F5
:102E7000010FB3F8A22C00F0CC82029B012B4FF083
:102E8000000900F06883BEF1010F00F061834FF08C
:102E9000000ABCF1010F00F0FE82BAF1000F02D06F
:102EA0000C4BA3F8A28CB9F1000F04D0074BBDF86E
:102EB0000C20A3F8A22C0A4A0A4B296811600122AF
:102EC0001A70FFF73ABB00BFF45DFF1F5C63FF1F82
:102ED00070A302200C70FF1FBC7CFF1FC02FFF1FC0
:102EE000845EFF1F6061FF1FC041FF1F085EFF1F60
:102EF0006C44FF1F3CB50220000048426666263F36
:102F0000CDCC4C3E000000001440FF1F305CFF1F82
:102F1000CC61FF1F9461FF1FC14ADFF86C931178E9
:102F2000DFF8688300230129C9F81830C8F8183081
:102F300000F067822C68BB49BB4800234B708B7044
:102F4000BA490268A1F8A23CB949A1F8A23CB94922
:102F5000A21AA1F8A23CB849FA2AA1F8A23C00F2B0
:102F6000C181B64B1B78B64803EB83029200013255
:102F70000023D2B2019200931A46194609F004F8D0
:102F8000306802287FF495AB1E2300931A46AC48A4
:102F9000DFF8F492DFF8F482002108F0CFFFA94BAC
:102FA000B3F9000000239842C9F81830C8F8183067
:102FB000C0F2238200EB400000013021FDF7CAFC83
:102FC00003233360202009F051FAC0F57F600F30F1
:102FD00007EE900ADFED9C5A9FED9C6ADFED9C6A3C
:102FE0009C4BB8EEE77AC7EE257A77EE867AF4EE58
:102FF000E67AF1EE10FAC3ED007A00F35E829FEDFF
:10300000967AF4EEC77AF1EE10FA5BBFB0EE677A0B
:10301000BEEEC87A914B17EE103A9FED8D7AC9F843
:103020001830F4EEC77AF1EE10FA00F355839FEDF5
:103030008A7AF4EEC77AF1EE10FA00F1DF82B0EE90
:10304000677ABEEEC87A17EE103A854ADFED856AD8
:1030500092ED017AC8F81830F1EE047AE7EE267A9C
:10306000F6EE086AFDEEE77AB4EEE67A17EE902AFD
:10307000C82AA8BFC822F1EE10FAC0F21C82F3EEF3
:10308000046AF1EE047AE7EE267A002AB8BF03322A
:103090009210FDEEE77ACDED027A9DF808100191CD
:1030A000002367480093D2B2194608F06DFF6E48BE
:1030B00002F074FF002840F042813068FFF7FCBA4C
:1030C0007A781AB96178012900F04C82BA78002A1E
:1030D0007FF42CA8A17801297FF428A89BF8001080
:1030E000022904BF5149A1F8A22C9BF80120022A11
:1030F00000F0ED829BF80220022A00F0E3829BF8A8
:103100000320022A7FF412A84B490022A1F8A22C26
:10311000FFF70CB86378554E002B7EF4F1AF33689F
:10312000002B3EF7EDAF97F802E0DFF868815049D9
:103130002B6888F80120BEF1010F4B607EF4EDAFE3
:10314000002848D188F802E08B604A689A1A012A60
:103150000BD9002388F80130FEF7B4FC98F8022060
:103160002B68012A7EF4DEAF41498A689A1A012A47
:103170007EF6D8AF002388F80230FEF7BBFC2B6840
:10318000FEF7D0BF00287EF4C4AF316800293EF7B7
:10319000C0AF374988F80220BEF1010F8B607EF482
:1031A000C1AFD2E72D4BFFF73EB9324B324A1B6815
:1031B00016931168169B314F314A5B1AB3F5967F0F
:1031C0004FF01E013B6011707EF6BFAF002303700D
:1031D000FEF7B9BF26494A689A1A012AB9D8FEF7FC
:1031E0009CBFDFF8B490D9F80010FFF783B8002433
:1031F0002346214600941E22114808F09FFE2149D3
:10320000104A2148214B846101250D6010789C6192
:10321000FDF778FC1E4B1D60346027B0BDE8F08FD1
:103220006CA30220485EFF1F78A302205C63FF1F8F
:103230000C70FF1FBC7CFF1F6C89FF1F3040FF1FFD
:10324000305CFF1F6860FF1F00A02A45CDCCCC3D3D
:1032500000FEFF46BC46FF1F00FEFFC600000180C7
:103260003CB5022000007042085EFF1F045EFF1F95
:103270003444FF1FB0BC0220845EFF1F5048FF1F74
:103280001440FF1F88E100E0CC61FF1F9461FF1F25
:1032900008E100E068A402205CB602204078C64B3A
:1032A00003901FFA82FA02289A72D04600F0BC817D
:1032B0009BF802E0029B0693BEF1020F7FF4B6ACCE
:1032C000BD4B002007901A731FFA82F89BF803C0C9
:1032D000CDF81480BCF1020F00F0A281029B4FF0E8
:1032E000020E47E0B54A04601378B3FA83F35B0932
:1032F000137038E64078029090B2039080460298AE
:10330000AD4B01285A7100F09F819BF802E0CDF887
:1033100018A0BEF1010F7FF48EADA74B00200790DF
:10332000DA711FFA82F89BF803C0CDF81480BCF163
:10333000010F00F0718153464FF0010E3EE0FDF7A2
:1033400063F9042333609E4802F01EFE002851D129
:103350003068FFF7B4B9013A901CB8BF00220A6088
:10336000FFF7EFBB944B5A73002396484FF0020CC3
:10337000A0F8A02C002B3FF461AC934BBDF81420B7
:10338000A3F8A02C5AE48C4BCDF81880DA721FFAFF
:1033900082F89BF802E0CDF81080BEF1020F00F039
:1033A0004781029B07930223039341E4824B1A72E5
:1033B000002384484FF0010CA0F8A02C002B3FF410
:1033C00042AD814BBDF81420A3F8A02C3BE57A4B0D
:1033D000CDF818809A711FFA82F89BF802E0CDF8B8
:1033E0001080BEF1010F00F029810123CDF81CA04F
:1033F000029322E5FDF746F90023336027B0BDE8CC
:10340000F08F72482C683B600521137004603160B6
:1034100091E50298684B0021012859710391D1462A
:103420007FF431AD4FF00008BEF1010F83F8068044
:103430007FF42FAD51460022BCF1010F5046DA71E6
:103440008A462AD000283FF428AD5F4BA3F8A22C6F
:1034500023E50398584BDDF8089000210228997263
:103460008A467FF40AAC4FF00008BEF1020F83F8E1
:103470000B807FF408AC0299029802910022BCF103
:10348000020F1A7311D000283FF401AC4E4BA3F881
:10349000A22CFFF7FCBB484B002000211972494BBE
:1034A000A3F8A21CCEE7444B002000215973454BE2
:1034B000A3F8A21CE7E70021F1E5454BC9F8183055
:1034C000C3E5F2EE006A37EE267ABDEEC77A17EE54
:1034D000103A002B80F294803E4B17EE901A002297
:1034E000187881F308011346C0B26DE400233360FD
:1034F000FEF700FBFFF71AB8FEF7E4FA002333608B
:10350000FFF700B8B7EE086AF2EE047AE7EE067A43
:10351000304B1878FDEEE77A16EE903A17EE901AD7
:1035200083F3080281F30801C0B2FFF74DBAFEF73A
:10353000C9FAD8F80030FEF7E2BFFEF7DBFAD8F898
:103540000030FEF7F0BFDFF89490DFF8948039E5A3
:103550000021194B6FE7184B64E7174B83E70021F5
:10356000154B89E79BF80010012904BF1A49A1F8FF
:10357000A22C9BF80120012A00F09F809BF80220DA
:10358000012A00F095809BF80320012A7FF49EAD6C
:103590000C490022A1F8A22C98E56378012B7FF456
:1035A000D8ABDFF83890DFF838800023C9F818303E
:1035B000C8F81830FFF7CDBB2847FF1F3040FF1F6A
:1035C000085EFF1F6C89FF1FBC7CFF1F2447FF1F85
:1035D0000000FF7F1440FF1F5C63FF1FCC61FF1FD3
:1035E0009461FF1FDFF89C91DFF89C814FF48033DA
:1035F000C9F81830C8F81830FFF7A4B9574B24E5BC
:10360000574AFF2B107817EE902AA8BFFF2382F3AA
:103610000801DBB2002267E71A72E6465346C8E6A5
:103620005A73E646029BA0E60298DA720690B0E66C
:1036300002981A73CDF80CE0079047E6DA71CDF8DE
:1036400008E0CDF81CA06EE69A71CDF818A0C4E68B
:10365000444A0023A2F8A23CFFF765BB424A00237C
:10366000A2F8A23CFFF75ABB404A0023A2F8A23CB2
:10367000FFF74FBB3E4A0023A2F8A23CFFF744BB32
:10368000384A0023A2F8A23CFFF735BB364A002394
:10369000A2F8A23CFFF72ABB344A0023A2F8A23CBE
:1036A000FFF71FBB324A0023A2F8A23CFFF714BB6E
:1036B0002D490022A1F8A22C65E72C490022A1F88F
:1036C000A22C5BE728490022A1F8A22C17E5274984
:1036D0000022A1F8A22C0DE5264BB6E49DF83C3063
:1036E0008EF80230FEF7BBBC0E9BCAF80830FEF71E
:1036F000BABC204BFEF797BE1D4BBDF80C20A3F8BB
:10370000A02CFFF7ABBB1A4BA3F8A0ACFFF7A1BAF4
:103710009FED197A194BF4EEC77AF1EE10FA5BBF00
:10372000B0EE677ABEEEC87A0C4A17EE102A9FED0B
:10373000147A5A62F4EEC77AF1EE10FA0ADC9FEDC1
:103740000E7AF4EEC77AF1EE10FA7EF5A2AD034BD5
:10375000FEF7A5BD074BFEF7A2BD00BF000001802C
:103760001440FF1F6C89FF1FBC7CFF1F0C70FF1FE4
:103770005C63FF1F0000FF7F00FEFFC6C05BFF1FF2
:1037800000FEFF46CC61FF1F9461FF1F2DE9F04151
:10379000064690B00D4668460122314604F0F6FE1A
:1037A000684604F00DFD00285CD0002DC8BF002441
:1037B00006DD01340920E4B20AF092F9AC42F8DBEC
:1037C000684604F0D1FC04460EF01AFA0146204681
:1037D0000AF002F9684604F0C9FC044688B30121E6
:1037E00023480AF0F9F823480AF0B8FD10AB9DF819
:1037F00004E053F8338D029F5868996893F80CC021
:103800009DF80C401C4A079BCDF83100CDF83510CF
:1038100008A8691CCDF82D808DF839C08DF824E0FA
:103820000A978DF82C4008920F93FFF7AFFF08A876
:1038300004F098FC684604F0B5FC684604F092FC7D
:10384000A9E702210D480AF0C7F8684604F0A6FC73
:10385000234601460A2207480AF090FD05480AF06F
:103860007DFDE7E7684604F07DFC10B0BDE8F0811F
:10387000205001008431FF1FA4550100E0500100D9
:103880002DE9F04F2DED048BA74BA84E01259DB0DF
:103890001D600A2009F02AF8A54808F021FA0A203C
:1038A00009F024F8FF21A248002408F097FB032721
:1038B0000A2009F01BF82346224621469C488DE841
:1038C000900008F061FB9A4808F060FA20219948BE
:1038D0000AF086F92946022008F0DEFF294638461C
:1038E00008F0DAFF2146042008F0D6FF2046022126
:1038F00008F0D2FF0221242008F0CEFF0221082088
:1039000008F0CAFF02210A2008F0C6FF0221112098
:1039100008F0C2FF0221192008F0BEFF0221182082
:1039200008F0BAFF29461D2008F0B6FF29461E20E0
:1039300008F0B2FF2946142008F0AEFF02211A2039
:1039400008F0AAFF2946052008F0A6FF2946152001
:1039500008F0A2FF2946052008F08AFF2946152015
:1039600008F086FF744B75489C61DC611C625C62E8
:103970004FF400438361C3617148724D83617248A3
:10398000AC61EC612C626C62704D83616C48704973
:10399000704AAB61EB614FF40055DFF834E2C5616A
:1039A00069488B61CB6193616B49D3616B4ACEF8F7
:1039B0001830CEF81C30C56144F6CC43684D6948D8
:1039C0008B61CB610B624B629361D3611362536273
:1039D00040F233236449C5F87031C0F87031634D4B
:1039E000634B8B61AB61A3F12773A3F54863614817
:1039F000614ACB61EB61614B4B626B626049614D27
:103A000043628161C56191615F486049D5615362DC
:103A10004B625F4A43625F4BCB61C3618A618261E3
:103A20005D495E485E4D112202F0B8FD11225A49EF
:103A30005C4802F0B3FD112257495B4802F0AEFD2D
:103A400011225549594802F0A9FD4FF480308DE804
:103A50009000A861564D5749A86123464CF2503258
:103A6000554802F037FD4CF2503254495448234631
:103A70008DE8900002F02EFD304602F0A7FB3046A4
:103A80005522202102F076FB38B1F28842F0040280
:103A900092B23046242102F06DFB0D2211462348DC
:103AA00002F02CFC6521214802F062FC0E211F4827
:103AB00002F010FC0721434804F006FA0E214148A9
:103AC00004F054FA06213F4804F0DEF9FA20FCF72E
:103AD00031FD062007F096FC00287BD11F213A48D3
:103AE00009F07AFF394800240AF038FC4FF47A7064
:103AF00008F0FCFE23462146142200940C4808F0EE
:103B00001DFA0B4808F042F94FF47A7008F0EEFE07
:103B10000094234622462146054808F00FFA04483F
:103B200008F034F9DAE700BF88E100E0ACA3022036
:103B3000305CFF1F0002FF1F445CFF1F4862FF1F35
:103B4000C05BFF1F6048FF1FF85BFF1FF062FF1F95
:103B50008062FF1FB862FF1F505BFF1F885BFF1F63
:103B6000B85EFF1F2C59FF1FBC60FF1FF860FF1FCE
:103B700040BCCD3F9C47FF1FFC47FF1F00B76D5B5C
:103B80000090752440DDF723D448FF1F9848FF1F9D
:103B90009556C6004656C600782FFF1F3840FF1FB7
:103BA000CC61FF1FB8A30220205DFF1F585DFF1FDF
:103BB0009461FF1F1C96FF1F9CB40220BC1C0120B7
:103BC0002045FF1FE02FFF1FE45001008431FF1F3D
:103BD0004C5EFF1F4FF4FA60FCF7ACFC1F217048ED
:103BE00004F0A6FB0446002800F0A48001266D4DD9
:103BF000DFED6D8A9FED6D8A002407EE904AF8EEA6
:103C0000E77AB0EE487AA7EEA87A013417EE100AE8
:103C10000CF0D6FB9FED5C1B41EC100B0BF034F964
:103C20005BA3D3E9002351EC100B0CF047FD5AA322
:103C3000D3E900230CF066FA0CF0C6FEB4F5806FF1
:103C400045F8040FD9D15A4D002420460CF0A6FBAC
:103C500002460B460CF008FC0022564B0CF004FC0C
:103C60000CF0DAFE0134B4F5806F45F8040FECD1A6
:103C70000C2008F089FB202008F0BAFB00214E48F8
:103C800003F0DCF9112008F0F9FD0546242008F0C6
:103C9000F5FD4A4904464A48FCF706FC49494848AC
:103CA000FCF702FC002C40F09780002D40F00486C9
:103CB00045494348FCF7F8FB5A232A462946009316
:103CC0004248322308F03AF9404808F05FF83220C1
:103CD00008F00CFE2C46E8B2FCF714FF002319464E
:103CE00032223A48009408F029F90135374808F0A3
:103CF0004DF80A2DEFD1642008F0F8FD642008F09B
:103D00007FFC0446652008F07BFC40EA0420304C30
:103D100043422380252008F0A9FB0546C0F3072174
:103D2000642008F087FCE9B265206D4208F082FC4F
:103D300025805FE027492248FCF7B6FB00251123C8
:103D40002B22002121480194009408F01DF91F48FE
:103D500008F01CF8642008F0C9FD042308220021A3
:103D60001A480194009408F00FF90135174808F03B
:103D70000DF8EDB2782008F0B9FD032DDFD1002653
:103D800035E700BFAFF300800000000000000840EE
:103D900000002013469EE24100000000006AE84057
:103DA00028BA02201049FF1F00504342004543C774
:103DB00068A402200000503FB45AFF1F10510100B8
:103DC0008431FF1F185101001C510100305CFF1F9E
:103DD000DC2FFF1F04510100642008F011FC044691
:103DE000652008F00DFC40EA0420C14C43422380CA
:103DF000002D8FD0BF49C048DFF87093DFF870A363
:103E0000FCF744FBB4F90010BB48FCF75FFB4FF034
:103E1000000BBA49B848FCF747FBC846CDF80C90F0
:103E20005746CDF810A05D460596B54B03991B6823
:103E300006910A465B4442F8043BA8B20392FCF7A1
:103E4000C9FB049B1E4643F8040B0221AD480493B2
:103E500009F0C2FD0121AC4809F0BEFD069AA64852
:103E6000116800230A220AF089FA0121A64809F004
:103E7000B3FD3168A04800230A220AF07FFA013519
:103E80009D480AF06BFA0A2D0BF5401BCDD1082096
:103E9000059E08F0F3FC012800F0CE849B4B9C4962
:103EA000B3F92020D1ED007AD8F800C0386802B903
:103EB0005A62F5EEC07A47F6FF75F1EE10FA1D84EE
:103EC000924900F183849FED937AF4EEC77AF1EE84
:103ED00010FA00F37884DFED906AB6EE007AA7EE70
:103EE000A67ABCEEC77A17EE101A8C4AD963B2F9DB
:103EF000201058650025C3F858C01866DD65A3F882
:103F0000805CD8F804C0786809B900235362F5EEE4
:103F1000C07A47F6FF73F1EE10FA138400F1F384D0
:103F20009FED7C7AF4EEC77AF1EE10FA00F3D284BA
:103F3000DFED796AB6EE007AA7EEA67ABCEEC77A14
:103F400017EE103A7649D363B1F92050506500233B
:103F5000D365A2F8803CC2F858C01066D8F8083083
:103F6000D7F808E005B94D62F5EEC07A47F6FF755F
:103F7000F1EE10FA0D846A4800F1AF849FED657A86
:103F8000F4EEC77AF1EE10FA00F3AC83DFED626A6B
:103F9000B6EE007AA7EEA67ABCEEC77A17EE100A44
:103FA000604AC863B2F920008B650023C1F854E071
:103FB000C1F860E0FF68D8F80CE0CB65A1F8803C60
:103FC00008B900235362F5EEC07A47F6FF73F1EEAD
:103FD00010FA138400F1D9839FED4E7AF4EEC77A7C
:103FE000F1EE10FA00F3CF83DFED4B6AB6EE007A04
:103FF000A7EEA67AFCEEC77A17EE903A00251020BD
:10400000D36357651766C2F858E0D565A2F8805C9F
:1040100008F02CFAC0F57F600F30C0F38D07DFF891
:104020005481414858F82710DFF84CB102F06EFA7D
:1040300058F827103D4802F069FA3D4ACBF81C5069
:10404000012111603B4A4FF48033CBF81830936163
:10405000394BD5611D62DD61384B08201D62DD6181
:1040600008F00CFC002800F07483354D002008F0A7
:1040700005FC28B9012333491F482B70FCF714FABB
:104080002B782F4F012B00F02F834FF0010806965D
:10409000DFED2D9ADFED2D8A9FED2D9A9FED2D8A74
:1040A000079ECDF80C80CDF81080002B6CD02A48EC
:1040B000DFF8C89001F042FF284801F03FFF284890
:1040C00001F03CFF274801F039FF274B24481B68CB
:1040D0001493149BC9F8003001F00EFF002861D042
:1040E0002B78174F022B7BD0032B00F09A8047E0F0
:1040F000DC2FFF1F3C5101008431FF1F485101009C
:10410000F05DFF1F505101000C5001005C63FF1F68
:10411000D82FFF1FA655AC464B243E470C70FF1FFF
:10412000BC7CFF1F6C89FF1F9CB402202045FF1F31
:1041300008E100E03847FF1F945EFF1F9C41FF1F0E
:104140001840FF1FDC51010000803B4500FEFF4688
:104150000000803900FEFFC68447FF1FF45DFF1F8B
:10416000085EFF1F6C44FF1FB0BC0220D844FF1F35
:104170001862FF1F1449FF1FDCA30220A845FF1F80
:10418000012B6FD0002B92D104490548FCF78CF924
:104190001DB0BDEC048BBDE8F08F00BF3C520100A8
:1041A0008431FF1FC84801F0F9FEC84A002897D0A3
:1041B0002B780133DBB2032B00D901230F21C44834
:1041C000137009F009FC00230A222978C148BF4F67
:1041D0000AF0D4F8BF480AF0C1F82B78022B83D13B
:1041E000BD4AD9F800101368CB1A142B7FF65FAFC5
:1041F0002520116008F03AF90146B6480AF0FEF8A9
:104200000121B64809F0E8FB262008F02FF9014605
:10421000B0480AF0F3F8AF480AF0A0F83B78032B57
:10422000AED1252008F022F90746C0F3072164200B
:1042300008F000FAF9B2652008F0FCF97F420A2183
:10424000A748278009F0C8FBB4F90010A1480AF07C
:10425000D5F8A0480AF082F84FF4FA7008F046FB4F
:1042600001232B709C4F9F49D9F800307A689E48F3
:10427000C8619E48C2EB030E9D4AC261994A4FF441
:1042800080311162BA680162BEF1050F4FF0100073
:1042900088BF7B60C2EB030A08F0E8F80028B8BFCB
:1042A0000330831014339A4522D9731CDEB2012ED9
:1042B000D9F80030BB6000F07382022E00F06782F4
:1042C000032E00F0768200230A22019200931A4600
:1042D000194688481E4607F057FE039B854883F021
:1042E0000103039307F052FD0399152008F0C0FA6B
:1042F000D9F80030FA68DFF83C9277489A1AB2F59C
:10430000FA7F0AD9049AC36082F00102114605209F
:10431000049208F0ADFAD9F800303A686E499A1A5A
:10432000502A40F2B0810B60069B88F0010833B937
:1043300071496848FCF7B8F866480AF00FF814208D
:10434000414608F095FA242008F098FA002800F079
:10435000AC8100232120CBF8183008F087F807EE55
:10436000900AB8EEE77AC7EE297AF4EEE87AF1EE31
:1043700010FA00F39881F4EEC87AF1EE10FA00F129
:104380009081B0EE677ABEEEC87A17EE103A5B4ABB
:10439000CBF81C3021200023936108F067F807EE6A
:1043A000900AB8EEE77AC7EE297AF4EEE87AF1EEF1
:1043B00010FA00F37481F4EEC87AF1EE10FA00F10D
:1043C0006C81B0EE677ABEEEC87A17EE103A4B4AAF
:1043D0002120D36108F04AF807EE900AF8EEE77A58
:1043E00067EE897AF4EEE87AF1EE10FA00F3538181
:1043F000F4EEC87AF1EE10FA00F14B81B0EE677A74
:10440000BEEEC87A17EE103A3D4A2120D36108F07B
:104410002DF807EE900AF8EEE77A67EE897AF4EE67
:10442000E87AF1EE10FA00F33281F4EEC87AF1EE98
:1044300010FA00F12A81B0EE677ABEEEC87A17EE64
:10444000103A3048C361304B00275F622F4B5F62E8
:104450002D4B4FF48031D9612C4BD9612C4B4FF44B
:1044600080229A612B4B9A61FDF706FCFCF74AFD0E
:10447000FDF700F828491748FCF708F8274801F02D
:104480003BFD0146134809F0B9FF25491148FBF7E8
:10449000FDFF244801F030FD01460E48FCF716F8F8
:1044A00021490C48FBF7F2FF204801F025FD0146A9
:1044B000084809F0A3FF1E490648FBF7E7FF02483A
:1044C00001F01AFD014637E06C44FF1F1840FF1F42
:1044D000EC5101008431FF1F1C5BFF1F0C500100D9
:1044E000FC510100945EFF1F60CE46019C41FF1FFE
:1044F000C09C8D02305CFF1F085201003847FF1F2F
:10450000B85DFF1F7C5DFF1FC05BFF1FF85BFF1FD7
:10451000CC61FF1F9461FF1F185201008447FF1FE9
:104520001C520100F45DFF1F20520100085EFF1FB6
:1045300024520100A845FF1FAF48FBF7C7FFAE4854
:1045400009F00CFF252007F091FF8146262007F097
:104550008DFF4FEAE91A059004E0013709F03CFAB3
:10456000202F0BD0BA454FF00101A448F5D1A44942
:10457000A1480137FBF78AFF202FF3D19E4809F0AD
:10458000EDFE059B00274FEAE31A04E0013709F02E
:1045900023FA202F0BD0BA454FF001019748F5D1EF
:1045A000984995480137FBF771FF202FF3D19248C6
:1045B00009F0D4FE4946904809F020FF92498E4800
:1045C000FBF764FF05998C48FBF780FF192008F082
:1045D00055F900230A220146874809F0CFFE8A498F
:1045E0008548FBF753FF1A2008F048F900230A22F8
:1045F0000146814809F0C2FE83497F48FBF746FF28
:10460000182008F03BF900230A2201467A4809F0F5
:10461000B5FE7D497848FBF747FF384607F026FF8F
:104620000146754809F0EAFE77497348FBF72EFF0B
:10463000102007F01BFF01466F4809F0DFFE7249AA
:104640006D48FBF723FF222007F010FF01466A4860
:1046500009F0D4FE6C496848FBF718FF232007F0E7
:1046600005FF01466448FBF731FF68496248FBF7E4
:104670000DFF212007F0FAFE01465F48FBF726FFF9
:104680005D4809F06BFE2B780FE5614BD9E6614B75
:10469000D7E65F4BB8E65F4BB6E65D4B97E65D4B02
:1046A00095E65B4B73E65B4B71E6112008F0E6F88C
:1046B00000287FF44EAE07468146F8B2FCF722FA96
:1046C0000023194632225448CDF8009007F036FCFA
:1046D0000137514807F05AFB0A2FEED1642008F049
:1046E00005F936E64D485BE4002E3FF4CEAC334688
:1046F0000CA84B4A4B4903F0C7FE1CAB9DF8342075
:1047000053F8330DCDF85D005968CDF86110996804
:104710001B7BCDF865108DF869309DF83C100E9B21
:104720008DF8542014A8404A16938DF85C10139B02
:104730001B9300211492FFF729F814A803F012FD2F
:104740004FF47A7008F0D2F80CA803F00BFD3B7818
:104750009BE4112008F092F800287FF486AC0A2030
:1047600008F08CF801287FF480AC242008F086F84B
:10477000012803462D4D7FF479AC2D491E482B703E
:10478000FBF792FE72E4254B38E4002336E4002266
:104790000192009211460A231F4807F0F5FB9CE5A1
:1047A00000230193009319460A221B4807F0ECFBF3
:1047B00093E500230A20009001931A4619461648F3
:1047C00007F0E2FB89E51549FFF78FBB194A4865F9
:1047D000B2F920E0C1F858C000230866CB63CB656E
:1047E000A1F8803CD8F804C07868BEF1000F3FF40F
:1047F0008CAB1584FFF7A6BB8431FF1FD45001009A
:10480000285201002C5201000C50010030520100CE
:10481000000001800000FF7F305CFF1FC0FFFF3FF2
:104820002050010028BA0220A45501001840FF1FA3
:10483000485201000C70FF1F112008F01FF80028DB
:104840007FF42CAB284608F019F8834600287FF443
:1048500025AB242008F012F801287FF41FAB002EAE
:104860003FF41CAB8DE860005B465A4659468B48C6
:1048700007F08AFB894807F089FA35462A468849B5
:1048800008A80DF0B9F88749012308AA0CA803F07D
:10489000FBFD0CA803F06AFC013508A9EDB2002865
:1048A00034D08148FBF7F2FD80497F48FBF7FCFDDF
:1048B0000CA803F057FCE1E7642007F0A1FE0446D2
:1048C000652007F09DFE40EA0420794C4342238096
:1048D000FFF790BA774BFFF735BB774A8365B2F99C
:1048E0002010C0F854E00023C0F860E0FF68D8F85A
:1048F0000CE0C363C365A0F8803C00293FF461ABC2
:104900001584FFF77BBB0023FFF71CBB08A9664893
:10491000DFF8BCB1FBF7BAFD68496348FBF7B6FDA9
:1049200008A9604803F024FE65495F48FBF7BCFD19
:10493000012308AA5B4914A803F0A6FD14A803F0FC
:1049400011FC0CA803F00EFC0123039304960594BC
:10495000052009F093FD0A300023C2B20121009224
:1049600001911A4619464D4807F00EFB4B4807F0D7
:104970000DFA039B534908AA0CA80DF03DF8132328
:104980000CAA484914A803F07FFD9DF85C209DF80F
:10499000540016994C4B8BF80C208BF80400CBF884
:1049A000081017AA12F8011F03F8011B47498B4290
:1049B000F8D11B9BC1F8023014A803F0D3FB444884
:1049C00003F0FEFB002853D042493748424E434C87
:1049D000FBF75CFD0CA93448FBF758FDDAF8000042
:1049E000D9F800203260800000F124023C4B2060A6
:1049F00092B21512010A5D711A71050C020E83F84C
:104A0000280083F8291083F82A5083F82B200025EA
:104A10002C2219462E489D71DD7103F01BFB226884
:104A200072B130681022284414A905F0B7FD102295
:104A300014A9274803F00EFB23681035AB42F0D8C9
:104A4000234803F0AFFB27491748FBF72DFD002350
:104A500014210A220191009219461A460F4807F0C4
:104A600093FA0E4807F092F9642007F03FFF03E045
:104A70001D490D48FBF718FD039B01330B2B0393D6
:104A80000AF1040A09F104097FF462AF17490648E4
:104A9000049E059CFBF708FDFFF700BA305CFF1F82
:104AA0005451010028BA02208431FF1F5C510100DB
:104AB000DC2FFF1FC0FFFF3F6C89FF1F70510100FB
:104AC0007C510100885101009545FF1FA245FF1F41
:104AD0008845FF1F94510100BC2FFF1F742FFF1F3B
:104AE000482FFF1FA0510100A8510100BC51010037
:104AF0002DE9F04F83B007F037FD954B954A964965
:104B0000DFF8B4A2954C964E964DDFF8B0B2002770
:104B10004FF0800C184683F804C01F600CF010F9A9
:104B20003A4639469048FBF7DBFC8F4B8F481F8491
:104B30004FF481694FF480783A463946A3F8849C53
:104B4000C3F8948C5F845F63DF63A3F8A07CA3F851
:104B5000A27CC3F800A0FBF7C3FC844B8448A3F8F5
:104B6000849C3A463946C3F8948CC3F800A01F844D
:104B70005F845F63DF63A3F8A07CA3F8A27CFBF7EC
:104B8000AFFC7B4B7B48A3F8849C3A463946C3F87C
:104B9000948CC3F800A01F845F845F63DF63A3F875
:104BA000A07CA3F8A27CFBF79BFC734B03F12002D3
:104BB0001846704B0121A3F8849CC3F8948CC3F869
:104BC00000A01F845F845F63DF63A3F8A07CA3F869
:104BD000A27CFBF785FC694BDFF8E49103F120022E
:104BE0001846654B01211C60FBF77AFC644B03F10E
:104BF00034021846614B02211C60FBF771FC614BCB
:104C0000614C03F1340218465D4B4FF480589E61AD
:104C1000DD61C3F820805C6202219F62DF621F6356
:104C2000C3F800B0FBF75CFC584B03F134021846A4
:104C3000544B02219E61DD61C3F820805C62C3F8A1
:104C400000B09F62DF621F63FBF74AFC504B03F129
:104C5000340218464D4B02219E61DD61C3F820806D
:104C60005C62C3F800B09F62DF621F63FBF738FC31
:104C7000484B03F134021846454B02219E61DD6129
:104C8000C3F820805C62C3F800B09F62DF621F63DC
:104C9000FBF726FC404B03F1340218463D4B022142
:104CA0009E61DD61C3F820805C62C3F800B09F6242
:104CB000DF621F63FBF714FC374BC3F800B0374BC0
:104CC00003F118021846344B01219E61DD61C3F8DF
:104CD00020805C629F62DF621F63FBF701FC304B48
:104CE000304DDFF8E08003F1180218462B4B40F6F8
:104CF000FC74202601211D60C3F86C41A3F83C61BF
:104D0000FBF7EEFB264B28481D603A463946C3F8B0
:104D10006C41A3F83C61FBF7E3FB234B234C244895
:104D20001C604FF480453A4639461D62FBF7D8FBBC
:104D30001F4BD8F800201C601D621E4B5F721F6164
:104D40001F72DF60C3F80090002A3ED101F061B805
:104D50007841FF1F302FFF1F810400008C54010099
:104D600000B28E04E8728E045C63FF1F0C70FF1F9C
:104D7000BC7CFF1F6C89FF1F9CB402202045FF1FD5
:104D8000BC60FF1FF860FF1F80F9855A9848FF1F1D
:104D9000D448FF1F9C47FF1FFC47FF1F2C59FF1FD4
:104DA000B85EFF1FB0540100945EFF1F0455010060
:104DB0009C41FF1FA4B50220F8540100A454010037
:104DC0009C4F0100B0BD02201A465369002BFBD155
:104DD000A64B5361A548A64B036000274761878017
:104DE000C780877201F08AFEA24BA34DA34EDFF865
:104DF000E4B2A34C03F1180218460121FBF770FB43
:104E0000A04B03F1180218469A4B012183F8F47065
:104E10001E6083F8F570C3F8F07083F8F670FBF746
:104E20005FFB984B05F128020421284683F8F470B3
:104E30001E6083F8F5704FF48036C3F8F07083F885
:104E4000F670FBF74DFB0BF12802042158462C604D
:104E5000AE61EE612E626E62FBF742FB8A4BCBF8CD
:104E6000004003F1280218460421CBF81860CBF863
:104E70001C60CBF82060CBF82460FBF731FB834B40
:104E800003F128021846804B04211C609E61DE61FC
:104E90001E625E62FBF724FB7D4B03F1280218467D
:104EA0007A4B04211C609E61DE611E625E62FBF72C
:104EB00017FB784B03F128021846754B04211C6040
:104EC0009E61DE611E625E62FBF70AFB724B03F1BC
:104ED000280218466F4B04211C609E61DE611E6231
:104EE0005E62FBF7FDFA6D4B03F1280218466A4B30
:104EF00004211C609E61DE611E625E62FBF7F0FAB7
:104F0000674B03F128021846644B04211C609E6124
:104F1000DE611E625E62FBF7E3FA624B03F1280278
:104F200018465F4B04211C609E61DE611E625E625A
:104F3000FBF7D6FA5C4B03F128021846594B0421C3
:104F40001C609E61DE611E625E62FBF7C9FA574B10
:104F500003F128021846544B04211C609E61DE6157
:104F60001E625E62FBF7BCFA514B03F12802184641
:104F70004E4B04211C609E61DE611E625E62FBF787
:104F8000AFFA4C4B03F128021846494B04211C6030
:104F90009E61DE611E625E62FBF7A2FA464B03F180
:104FA00028021846434B04211C609E61DE611E628C
:104FB0005E62FBF795FA414B03F1280218463E4B1F
:104FC00004211C609E61DE611E625E62FBF788FA4E
:104FD0003B4B03F128021846384B04211C609E61AC
:104FE000DE611E625E62FBF77BFA3549354A0C6072
:104FF0001446183202208E61CE610E624E623B462C
:10500000394642F8189C2772E7606072226100E01E
:10501000226942F823102B4A2A48527A01339A42D5
:10502000F6DCD8F80020284B12B900F0F6BE1A467C
:105030005369002BFBD1234B53612248234B036060
:10504000002444618480C480847202F067F9204A9D
:1050500016461472C2F800900220183223462146E8
:10506000F46070723446326137E000BFA4B50220AC
:10507000BC5401005C40FF1F505BFF1FEC5401005B
:10508000C8540100C445FF1FC05BFF1FF85BFF1F32
:105090006048FF1F445CFF1FB85DFF1F7C5DFF1F62
:1050A000CC61FF1F9461FF1F4C5EFF1F8062FF1FDA
:1050B000B862FF1FF062FF1F4862FF1F3847FF1FE3
:1050C000DCA302203861FF1FB0BD0220E0540100C4
:1050D000B45AFF1F885BFF1F226942F82310064A5B
:1050E0000548527A01339A42F6DCD8F80020034B87
:1050F0003AB900F095BE00BFB45AFF1FB0BD022000
:105100001A465369002BFBD1C64B5361C548C64BA9
:105110000360002444618480C480847201F0CEFE68
:10512000C24BDFF88883C24EDFF8849303F1180284
:1051300018460121FBF7D4F9BE4B03F118021846BB
:10514000BA4B47F6FF7A4FF400470121C3F80080BD
:10515000A3F81EA01F84FBF7C3F9B74B03F1180295
:105160001846B44B0121C3F80080A3F81EA01F8489
:10517000FBF7B6F9B14B03F118021846AE4B01210B
:10518000C3F80080A3F81EA01F84FBF7A9F9AB4861
:10519000AB4AAC4906600BF0D3FDAB4BAB4FDFF82D
:1051A00014A3DFF8148303F1180218460121FBF75A
:1051B00097F9A548A24AA34906600BF0C1FD09F181
:1051C000180248460121FBF78BF948469C4A9D4945
:1051D000C9F800600BF0B4FD9D4B012103F11802EA
:1051E0001846FBF77DF99A48954A964906600BF0F8
:1051F000A7FD984B3C72384687E828007C72FC601B
:105200003C7408F0E9FD8E4A9349944E38460BF001
:1052100097FD904B8AF809408AE8080850464FF0FD
:1052200001038AF80830CAF80C408AF8104008F0E8
:10523000D3FD834A88498A4F50460BF081FD894B44
:1052400088F8084088E8280040464FF0010388F8B5
:105250000930C8F80C4088F8104008F0BDFD784AC5
:105260007D49DFF858A240460BF06AFD4FF001037C
:105270003B727C4BFC6087E8080838464FF001031E
:105280007B723C7408F0A8FD6D4A7349DFF83082E8
:1052900038460BF055FD744B347286E828003046D2
:1052A0004FF002037372F460347408F095FD644AA1
:1052B00069496E4F30460BF043FD4FF0010388F80B
:1052C0000830694BC8F80C4088E8080840464FF0A1
:1052D000020388F8093088F8104008F07DFD584A2C
:1052E0005D49634E40460BF02BFD624B3C7287E8F4
:1052F000280038464FF003037B72FC603C7408F0D2
:105300006BFD4F4A5449DFF8BC8138460BF018FD5D
:105310004FF001033372574B574FF46086E808088B
:1053200030464FF003037372347408F055FD444A5D
:10533000494930460BF004FD504E514B7B603846D6
:105340003C723D607C72FC603C7408F045FD3C4A58
:1053500041494C4D38460BF0F3FC4B4B4B4F7360BF
:1053600030463472C6F800B07472F460347408F0D9
:1053700033FD334A3849DFF850B130460BF0E0FCDA
:105380003F4B434E3B603846424B7B603C727C72E5
:10539000FC603C7408F020FD294A2F4938460BF088
:1053A000CFFC3C4B33603046C6F8049034727472C4
:1053B000F460347408F010FD214A2749364F304616
:1053C0000BF0BEFC354B6B602846C5F800902C7284
:1053D0006C72EC602C7408F0FFFC194A1E49304EC8
:1053E000DFF8E89028460BF0ABFC2C4BCAF80030F5
:1053F00050462C4B8AF80840CAF804308AF8094015
:10540000CAF80C408AF8104008F0E6FC0C4A124931
:10541000254B019350460BF093FC4FF0020388F8A4
:10542000083055E0B45AFF1FD454010038B60220AA
:10543000985401009860FF1FD847FF1F3840FF1F96
:10544000302FFF1F85650000B8A3022014B502208D
:10545000585DFF1F5C63FF1F75040000C444FF1FFD
:10546000B044FF1F0C70FF1FBC7CFF1F64B50220FF
:1054700078B502206C89FF1F0844FF1F1C44FF1FE2
:10548000C05BFF1F7C61FF1FF85BFF1F185EFF1FE3
:10549000445DFF1F9CB402206861FF1FBC60FF1FBA
:1054A000D446FF1F9848FF1F2C60FF1F6454010063
:1054B000205DFF1F28B502209C44FF1F2C5EFF1FAC
:1054C00050B502204060FF1F1C40FF1FC441FF1F5A
:1054D000BE4BC8F80030BE4BC8F8043040464FF011
:1054E000030388F80930C8F80C4088F8104008F029
:1054F00073FCB84AB849B94DDFF84CA340460BF0ED
:105500001FFCB74B3B603846B64B7B603C727C72ED
:10551000FC603C7408F060FCAE4AAF49DFF82C83B5
:1055200038460BF00DFCB04B73603046AD4B33602A
:1055300034727472F460347408F04EFCA54AA649C3
:10554000AA4F30460BF0FCFBA74B2B602846A84B1C
:105550006B602C726C72EC602C7408F03DFC9E4900
:105560009C4AA44E28460BF0EBFB019BA04A1A6014
:105570001846A14A1C725A605C72DC601C7408F008
:105580002BFC019B934A94499C4D18469C4B0193DC
:105590000BF0D6FB4FF002038BF80830964BCBF89C
:1055A00000308F4BCBF8043058464FF003038BF894
:1055B0000930CBF80C408BF8104008F00DFC854A00
:1055C000854958460BF0BCFB8E4BCAF80030804B27
:1055D000CAF8043050464FF001038AF809308AF8BF
:1055E0000840CAF80C408AF8104008F0F5FB794AE8
:1055F0007949DFF85CB250460BF0A2FB814BC9F849
:1056000000304846804BC9F8043089F8084089F8D2
:105610000940C9F80C4089F8104008F0DDFB6D4ADC
:105620006D49DFF830A248460BF08AFB774BC8F88B
:105630000030754BC8F8043040464FF0010388F83D
:10564000093088F80840C8F80C4088F8104008F085
:10565000C3FB604A6049DFF8009240460BF070FBE4
:105660006B4B7B603846684B3B603C727C72FC60E5
:105670003C7408F0B1FB574A5749DFF8E0813846DF
:105680000BF05EFB4FF001037372604B33603046EA
:10569000534B73603472F460347408F09DFB4D4AD0
:1056A0004D495C4F30460BF04BFB5B4B2B60284663
:1056B0005A4B6B602C726C72EC602C7408F08CFB93
:1056C0004549444A564E28460BF03AFB5548564D3C
:1056D00004744FF0010202724F4A02604F4A426066
:1056E0004FF001024272C46008F076FB3A49394A31
:1056F0004C480BF025FB019B484A1A6018464B4A60
:105700001C725A605C72DC601C7408F065FB019BC3
:105710003149304A1846464B01930BF011FB45487E
:105720003E4A0260444A047242604472C460047497
:1057300008F052FB274A28493E480BF001FB3F4B3B
:10574000CBF8003058463E4BCBF804308BF808407D
:105750008BF80940CBF80C408BF8104008F03CFB6C
:105760001D491C4A58460BF0EBFA3648DFF8F0B0FA
:10577000C4604FF001020272304A0260304A426057
:105780004FF001024272047408F026FB114A1249DC
:105790002C480BF0D5FA4FF001038AF80930284B5A
:1057A000CAF800305046214BCAF804308AF8084045
:1057B000CAF80C408AF8104008F00EFB054A06496A
:1057C00050460BF0BDFA4FF001034BE09848FF1F25
:1057D000C05BFF1F302FFF1F75040000E846FF1F4E
:1057E000F85BFF1F2045FF1F585DFF1FEC41FF1FA7
:1057F000F860FF1F1442FF1FD448FF1F6C60FF1F9B
:10580000B45CFF1FCC61FF1F4C5EFF1F9461FF1F44
:1058100038B60220AC45FF1F5C63FF1F4862FF1FC4
:105820000042FF1F7047FF1F0047FF1F6048FF1F18
:105830008C5CFF1F5460FF1F445CFF1F0C70FF1F38
:105840008062FF1F2863FF1F0845FF1FD841FF1F0D
:1058500054A402208044FF1F00B502208441FF1F92
:1058600040A4022089F80930B84BC9F800304846F6
:10587000B74BC9F8043089F80840C9F80C4089F8DA
:10588000104008F0A9FAB34AB349DFF838A34846F4
:105890000BF056FAB14BC8F800304046B04BC8F890
:1058A000043088F8084088F80940C8F80C4088F8A7
:1058B000104008F091FAA74AA749DFF80C93404638
:1058C0000BF03EFA4FF001033B72A44B3B60A44B3C
:1058D0007B6038464FF001037B72FC603C7408F03B
:1058E0007BFA9D499B4ADFF8E48238460BF028FAA0
:1058F0009C489D4F04724FF002024272984A026027
:105900009A4A4260C460047408F066FA9249914A67
:1059100094480BF015FA96484FF002024272904AF2
:1059200002608B4A42600472C460047408F054FA46
:10593000884A89498E480BF003FA8E4B3360304613
:105940008D4B736034727472F460347408F044FAEE
:10595000804A814930460BF0F3F94FF001032B7276
:10596000844B2B60844B6B6028464FF001036B72B5
:10597000EC602C7408F030FA7749764A7F4E28465E
:105980000BF0DEF97E487F4D04724FF00302427245
:10599000794A0260754A4260C460047408F01CFAD7
:1059A0006D496C4A76480BF0CBF977484FF003020B
:1059B0004272714A0260664A42600472C4600474B2
:1059C00008F00AFA6449634A6F480BF0B9F9019B81
:1059D000664A1A6018466D4A1C725A605C72DC6036
:1059E0001C7408F0F9F9019B5B495A4A18460BF000
:1059F000A7F96748654A0260664A047242604472C9
:105A0000C460047408F0E8F95349524A60480BF046
:105A100097F961484E4A0260604A047242604472DB
:105A2000C460047408F0D8F94A4A4B495A480BF04C
:105A300087F95A4BCBF800305846594BCBF8043015
:105A40008BF808408BF80940CBF80C408BF81040DD
:105A500008F0C2F940493F4A58460BF071F95148E5
:105A6000514A4260414A026004724472C460047444
:105A700008F0B2F93849374A4A480BF061F94B4807
:105A80004B4A4260324A026004724472C460047439
:105A900008F0A2F92F4A304944480BF051F9404B25
:105AA000CAF800305046434BCAF804308AF8084020
:105AB0008AF80940CAF80C408AF8104008F08CF9BE
:105AC000244A254950460BF03BF9324BC9F80030C7
:105AD0004846394BC9F8043089F8084089F809402C
